S01700004763634170706C69636174696F6E352E7372656357
S11300000C9447000C9464000C9464000C946400F9
S11300100C9464000C9464000C9464000C946400CC
S11300200C9464000C9464000C9464000C946400BC
S11300300C9464000C9464000C9464000C946400AC
S11300400C9464000C9464000C9464000C9464009C
S11300500C9464002E032E032E0359033C033C032B
S11300603C0359034B034B034B0359035D03D80370
S1130070EE031A046C05460472049E047805CA044F
S1130080F6042005890562054C058C058F051124AD
S11300901FBECFE5D8E0DEBFCDBF12E0A0E6B0E0E2
S11300A0E6E3FCE002C005900D92AE30B107D9F74B
S11300B022E0AEE0B2E001C01D92A437B207E1F73E
S11300C00E9492050C9419060C9400009C0183E094
S11300D083BF83E807C082BF98B7916098BF08B612
S11300E000FEFDCF21503109B0F713BE08956623F9
S11300F011F0C09A01C0C098C19882BB8FEF81BB38
S1130100C29A000000000000C2980895C098C19AE5
S113011011BA90B3C29A00000000000011BA90B363
S1130120C29899239CF30E9477000895B89AB99ACB
S1130130BA9A80E190E00E94660060E080E30E9449
S1130140770085E090E00E94660060E080E30E9412
S1130150770081E090E00E94660060E08CE30E94FA
S1130160860060E08CE00E94860060E086E00E94E9
S1130170860060E081E00E948600089560E081E0EE
S11301800E9486000895CF93C62F98E2899FC00DE0
S1130190112460E082E00E948600CC2331F060E00C
S11301A084E10E948600C150D1F7CF91089561E0A7
S11301B00E9486000895CF93DF93EC012196FC0101
S11301C08081882331F061E00E9486008991811149
S11301D0FACFDF91CF9108959C0182E083BF86EF2F
S11301E007C082BF98B7916098BF08B600FEFDCFE4
S11301F021503109B0F713BE0895EF92FF920F9387
S11302001F93CF93DF931616170684F47B018C019A
S1130210C0E0D0E0D89AC8010E94EC00D898C80188
S11302200E94EC002196EC16FD06A1F7DF91CF9118
S11302301F910F91FF90EF9008956EE670E082E7B2
S113024090E00E94FD0084E690E00E94660008951C
S11302506CED70E082E790E00E94FD0084E690E09F
S11302600E9466000895CF93DF93EC01988199234F
S113027059F02196913319F40E941D0102C00E9485
S1130280280199919111F6CFDF91CF910895CF93E1
S1130290DF93E0911002EE2321F1C0E1D2E080ED82
S11302A08E0F8A3048F4F0E0EE0FFF1FE650FE4F49
S11302B0808191810E943301E9918FEB8E0F8A3105
S11302C048F4F0E0EE0FFF1FE056FE4F808191816D
S11302D00E94330184EF91E00E946600E881E111FD
S11302E0DECFDF91CF910895DF92EF92FF920F93CB
S11302F01F93CF93DF938091560290915702181663
S1130300190654F50F2EF0E1EF2EF2E0FF2EF02D3A
S113031000E010E00F2EFFE4DF2EF02DDAE1F7010C
S1130320C1917F01602F81E00E94C300CD9D812D8A
S113033011248695869586958D9FC01911248C2F3E
S11303408F5B0E94D7000F5F1F4F809156029091E0
S11303505702081719071CF3DF91CF911F910F91D2
S1130360FF90EF90DF9008959F92AF92BF92CF924B
S1130370DF92EF92FF920F931F93CF93DF93CDB74A
S1130380DEB760970FB6F894DEBF0FBECDBF809185
S1130390560290915702181619068CF50F2EF0E1AB
S11303A0AF2EF2E0BF2EF02DCE0101966C01E12CB0
S11303B0F12C0F2EFFE49F2EF02D0AE1F50111918F
S11303C05F01199D812D1124869586958695809FC0
S11303D0101911241F5BF60111936F016E2D81E03A
S11303E00E94C300812F0E94D700FFEFEF1AFF0A7B
S11303F08091560290915702E816F906FCF2198191
S1130400112349F17E0182E0E80EF11C80ED810F99
S11304108A3050F4E12FF0E0EE0FFF1FE650FE4F5C
S1130420808191810E9433018FEB810F8A3150F4D6
S1130430E12FF0E0EE0FFF1FE056FE4F8081918127
S11304400E94330184EF91E00E946600F70111914C
S11304507F011111DBCF60960FB6F894DEBF0FBE9B
S1130460CDBFDF91CF911F910F91FF90EF90DF905F
S1130470CF90BF90AF909F900895209156023091F5
S11304805702121613066CF4A8E9B1E0E0E1F2E0B9
S1130490205F3D4F8D91908189278193E217F30767
S11304A0C9F760E081E00E94C30080910E02909140
S11304B00F02892B49F481E090E090930F0280931E
S11304C00E020E947401089510920F0210920E02FF
S11304D080E192E00E94DB000895CF93DF93609166
S11304E056027091570216161706E4F4C9EAD0E0D2
S11304F0A0E1B2E0605F7D4F20E030E0899190E0C0
S1130500280F391FF901E855FF4F4081840F911DD1
S1130510FC01E855FF4F9C91808189278D93A61794
S1130520B70761F760E081E00E94C30080910E028A
S113053090910F02892B49F481E090E090930F028F
S113054080930E020E94740108C010920F02109250
S11305500E0280E192E00E94DB00DF91CF910895CA
S113056014BA15BA95B36C5F7F4F21E030E0A9014E
S1130570062E02C0440F551F0A94E2F7492B45BBCF
S113058094B302C0220F331F8A95E2F7922B94BBD7
S113059085B32095282325BB23B330E002C03595CD
S11305A027956A95E2F781E090E020FF02C080E0A1
S11305B090E008950F931F93CF93DF9300E010E032
S11305C018C0BE01C8010E94B002009749F0000F94
S11305D0111F000F111FC00FD11FCE0101960CC0B7
S11305E02196C430D10569F70F5F1F4F0430110500
S11305F019F0C0E0D0E0E5CFDF91CF911F910F91CA
S11306000895CF93DF930E94DA02EC01892B41F025
S11306100E94DA02C817D907D9F38C2F9D2F02C084
S113062080E090E0DF91CF9108950F931F93CF93D3
S1130630DF9300D000D0CDB7DEB71A8219821C82B6
S11306401B8200E010E00E940103FC013197ED30B1
S1130650F10578F5E65DFF4F0C94CF05F801EE0F38
S1130660FF1F21E030E02C0F3D1FE20FF31F9183A9
S113067080830F5F1F4F1DC0F801EE0FFF1F21E0A5
S113068030E02C0F3D1FE20FF31F0197918380830D
S11306900F5F1F4F0EC0F801EE0FFF1F21E030E087
S11306A02C0F3D1FE20FF31F0297918380830F5F8E
S11306B01F4F023011053CF202C003E010E0C801F4
S11306C08D7F019719F429813A811AC002301105EE
S11306D091F489819A819C01220F331F880F991FFD
S11306E0880F991F880F991F280F391F8B819C81B0
S11306F0280F391F05C089EA91E00E94E90502C06C
S1130700822F932F0F900F900F900F90DF91CF9126
S11307101F910F9108950F931F93CF93DF930E941E
S11307201503EC012091560230915702121613065C
S11307309CF4E0E1F2E0205F3D4F0AE110E08081AB
S1130740AE01480F511DCA01B8010E94BB058F5B61
S11307508193E217F30799F760E081E00E94C300F8
S113076080910E0290910F02892B49F481E090E070
S113077090930F0280930E020E94740108C010929D
S11307800F0210920E0280E192E00E94DB00DF91E2
S1130790CF911F910F9108950E9401030197803119
S11307A0910508F0BEC1895C9F4FFC010C94CF05F4
S11307B06091560270915702FB01E05FFD4F81E3A7
S11307C0808380E00E94C300E0915602F0915702BA
S11307D0E05FFD4F80810E94D7000895609156022A
S11307E070915702FB01E05FFD4F80819FEB980FF2
S11307F0933030F081E4FB01E05FFD4F80830DC056
S1130800833431F482E3FB01E05FFD4F808305C054
S1130810FB01E05FFD4F8F5F808380E00E94C30097
S1130820E0915602F0915702E05FFD4F80810E94F3
S1130830D70008956091560270915702FB01E05F62
S1130840FD4F80819CEB980F933030F084E4FB01E2
S1130850E05FFD4F80830DC0863431F483E3FB01F8
S1130860E05FFD4F808305C0FB01E05FFD4F8F5FBC
S1130870808380E00E94C300E0915602F091570209
S1130880E05FFD4F80810E94D70008956091560279
S113089070915702FB01E05FFD4F808199EB980F47
S11308A0933030F087E4FB01E05FFD4F80830DC09F
S11308B0893431F484E3FB01E05FFD4F808305C09C
S11308C0FB01E05FFD4F8F5F808380E00E94C300E7
S11308D0E0915602F0915702E05FFD4F80810E9443
S11308E0D70008956091560270915702FB01E05FB2
S11308F0FD4F808196EB980F933030F08AE4FB0132
S1130900E05FFD4F80830DC08C3431F485E3FB013F
S1130910E05FFD4F808305C0FB01E05FFD4F8F5F0B
S1130920808380E00E94C300E0915602F091570258
S1130930E05FFD4F80810E94D700089560915602C8
S113094070915702FB01E05FFD4F808193EB980F9C
S1130950933030F08DE4FB01E05FFD4F80830DC0E8
S11309608F3431F486E3FB01E05FFD4F808305C0E3
S1130970FB01E05FFD4F8F5F808380E00E94C30036
S1130980E0915602F0915702E05FFD4F80810E9492
S1130990D70008956091560270915702FB01E05F01
S11309A0FD4F808190EB980F943030F080E5FB018F
S11309B0E05FFD4F80830DC0833531F487E3FB0195
S11309C0E05FFD4F808305C0FB01E05FFD4F8F5F5B
S11309D0808380E00E94C300E0915602F0915702A8
S11309E0E05FFD4F80810E94D70008956091560218
S11309F070915702FB01E05FFD4F8081843530F434
S1130A0084E5FB01E05FFD4F80830DC0863530F047
S1130A1088E3FB01E05FFD4F808305C0FB01E05FDD
S1130A20FD4F8F5F808380E00E94C300E0915602F7
S1130A30F0915702E05FFD4F80810E94D700089536
S1130A406091560270915702FB01E05FFD4F808177
S1130A5099EA980F943030F087E5FB01E05FFD4F91
S1130A6080830DC08A3531F489E3FB01E05FFD4FDB
S1130A70808305C0FB01E05FFD4F8F5F808380E0D2
S1130A800E94C300E0915602F0915702E05FFD4FCF
S1130A9080810E94D7000895609156027091570298
S1130AA0FB01E05FFD4F80E3808380E00E94C30090
S1130AB0E0915602F0915702E05FFD4F80810E9461
S1130AC0D700089580915602909157020196909311
S1130AD0570280935602089580910E0290910F025E
S1130AE0019719F40E94B40108950E9447010895E2
S1130AF00E94BE0080911002882331F0E0E1F2E010
S1130B00119280818111FCCF1092570210925602EB
S1130B1008950E948B0308950E943D0208950E9447
S1130B206D0208958EB581608EBDD09AE4E9F0E03F
S1130B30AAE5B2E088EA90E0219131912D933D93AA
S1130B40E817F907C9F7E0E6F0E0A2E2B2E084E9C9
S1130B5090E0219131912D933D93E817F907C9F75E
S1130B6010925702109256020E9496000E94BE00F4
S1130B700E94CC03FDCF97FB072E16F4009407D0F8
S1130B8077FD09D00E94D50507FC05D03EF4909569
S1130B9081959F4F0895709561957F4F0895EE0F4D
S1130BA0FF1F0590F491E02D0994AA1BBB1B51E192
S1130BB007C0AA1FBB1FA617B70710F0A61BB70BC9
S1130BC0881F991F5A95A9F780959095BC01CD016E
S1130BD008950F931F93CF93DF93E0917002F091E8
S1130BE07102238121FF1BC08C01D0E0C0E0F80119
S1130BF081918F016091700270917102DB011896EE
S1130C00ED91FC911997882331F00995892B79F39B
S1130C10DFEFCFEFECCF8AE00995892B19F08FEF46
S1130C209FEF02C08D2F9C2FDF91CF911F910F91C9
S1090C300895F894FFCFC3
S1130C36ED01FD01AF01BA01A701B401BF01F10144
S1130C46F301DF01C401B901E701B601E001BE0108
S1130C56C301B501F201EE01EC01EB01E601C801A5
S1130C66CD010302D201D801DE01E401EA01F0015B
S1130C76F601FC01020208023031303130313031E4
S1130C863031303130313031303130313031303152
S1130C963031303130313031303130313031303142
S1130CA63031303130313031303130313031303132
S1130CB63031303130313031303130313031303122
S1130CC63031303130313031303130313031303112
S1130CD63031303130313031303130313031303102
S1130CE630313031303130313031303130313031F2
S1130CF630313031303130313031303130313031E2
S1130D0630313031303130313031303130313031D1
S1130D1630313031303130313031303130313031C1
S1130D2630313031303130313031303130313031B1
S1130D3630313031303130313031303130313031A1
S1130D463031303130313031303130313031303191
S1130D563031303130313031303130313031303181
S1130D663031303130313031303130313031303171
S1130D763031303130313031004552524F52003229
S1130D8631323100313132310031323131003132D8
S1130D9632310032323132003231313200323132C4
S1130DA632003232323232003132323232003131B2
S1130DB632323200313131323200313131313200A6
S1130DC63131313131003231313131003232313168
S1110DD63100323232313100323232323100E9
S9030000FC
