S01700004763634170706C69636174696F6E342E7372656358
S11300000C94A7000C94C4000C94C4000C94C40079
S11300100C94C4000C94C4000C94C4000C94C4004C
S11300200C94C4000C94C4000C94C4000C94C4003C
S11300300C94C4000C94C4000C94C4000C94C4002C
S11300400C94F0010C94C4000C94C4000C94C400EF
S11300500C94C40000407A10F35A00A0724E1809A0
S11300600010A5D4E80000E87648170000E40B541B
S1130070020000CA9A3B000000E1F50500008096EA
S11300809800000040420F000000A086010000001C
S1130090102700000000E8030000000064000000D6
S11300A000000A00000000000100000000002C769F
S11300B0D888DC674F0823DFC1DFAE59E1B1B796BA
S11300C0E5E3E453C63AE651997696E8E6C2842617
S11300D0EB898C9B62ED407C6FFCEFBC9C9F40F2F3
S11300E0BAA56FA5F490055A2AF75C936B6CF9676F
S11300F06DC11BFCE0E40D47FEF520E6B500D0ED34
S1130100902E0300943577050080841E080000209B
S11301104E0A000000C80C333333330F986E128339
S11301201141EF8D2114893BE65516CFFEE6DB180D
S1130130D1844B381BF77C1D901DA4BBE4242032D2
S113014084725E228100C9F124ECA1E53D271124CB
S11301501FBECFE5D8E0DEBFCDBF10E0A0E6B0E023
S1130160E4E7F0E102C005900D92A637B107D9F794
S113017020E0A6E7B0E001C01D92AC38B207E1F779
S11301800E9489030C9438080C9400009C0182E0BE
S113019083BF86EF08C082BF98B7916098BFA895C7
S11301A008B600FEFDCF21503109A8F713BE08950B
S11301B0662311F0C09A01C0C098C19882BB8FEF2A
S11301C081BBC29A000000000000C2980895C09844
S11301D0C19A11BA90B3C29A00000000000011BA8B
S11301E090B3C29899239CF30E94D8000895B89ABA
S11301F0B99ABA9A80E190E00E94C60060E080E378
S11302000E94D80085E090E00E94C60060E080E390
S11302100E94D80081E090E00E94C60060E08CE378
S11302200E94E70060E08CE00E94E70060E086E066
S11302300E94E70060E081E00E94E700089560E02A
S113024081E00E94E7000895CF93C62F98E2899F2A
S1130250C00D112460E082E00E94E700CC2331F05D
S113026060E084E10E94E700C150D1F7CF91089586
S1130270CF93DF93EC012196FC018081882331F038
S113028061E00E94E70089918111FACFDF91CF915B
S113029008950F931F93CF93DF93D82FC62F8A010E
S11302A00E942401C8010E94380162E06C0F8D2F66
S11302B00E94240184E690E00E943801DF91CF91EE
S11302C01F910F9108950E941F014AE650E060E0DB
S11302D070E080E090E00E9449014DE650E068E063
S11302E070E080E090E00E94490140E750E060E067
S11302F070E081E090E00E94490143E750E068E04B
S113030070E081E090E00E9449010895EF92FF922D
S11303100F931F93CF93DF93D42FC22F780100E85C
S113032010E023E041E00E94AF056C2F8D2F0E9466
S11303302401C7010E94380162E06C0F8D2F0E94D6
S11303402401C8010E943801DF91CF911F910F91C0
S1130350FF90EF9008950F931F9360918400709124
S1130360850080918600909187000AE610E020E0E5
S113037030E040E050E00E9486016091600070919E
S1130380610080916200909163000DE610E028E026
S113039030E040E050E00E94860160917A00709164
S11303A07B0080917C0090917D0000E710E020E0CC
S11303B030E041E050E00E94860160918800709135
S11303C0890080918A0090918B0003E710E028E077
S11303D030E041E050E00E9486011F910F910895A2
S11303E01F920F920FB60F9211246F927F928F92E9
S11303F09F92AF92BF92CF92DF92EF92FF920F93B0
S11304001F932F933F934F935F936F937F938F9398
S11304109F93AF93BF93CF93DF93EF93FF930E9488
S11304201F0188B7846088BF64B175B180E090E033
S11304300E948B0420E030EC4FE754E40E9419043E
S113044020E030E040EA50E40E944205162F072FD6
S1130450B82EA92E862F902FAB2DBA2D8093840011
S113046090938500A0938600B0938700C0917E008E
S1130470D0917F002196D0937F00C0937E0020917D
S11304807600309177004091780050917900612F87
S1130490702F8B2D9A2D0E94A8036B017C01609311
S11304A07600709377008093780090937900909011
S11304B06000809061007090620060906300292D5C
S11304C0382D472D562D612F702F8B2D9A2D0E947C
S11304D03D05181624F0912E802E7B2C6A2C892D34
S11304E0982DA72DB62D8093600090936100A09362
S11304F06200B093630090907A0080907B007090CB
S11305007C0060907D00292D382D472D562D612FBC
S1130510702F8B2D9A2D0E941404882324F0912E81
S1130520802E7B2C6A2C892D982DA72DB62D809397
S11305307A0090937B00A0937C00B0937D00BE0171
S1130540DD0F880B990B0E948D049B01AC01C70140
S1130550B6010E9419046093880070938900809307
S11305608A0090938B000E94AB0198B380E18927A5
S113057088BB87EF92EC9DBD8CBDFF91EF91DF911D
S1130580CF91BF91AF919F918F917F916F915F9127
S11305904F913F912F911F910F91FF90EF90DF901A
S11305A0CF90BF90AF909F908F907F906F900F905F
S11305B00FBE0F901F90189514BA15BA95B36C5FBF
S11305C07F4F21E030E0A901062E02C0440F551FE1
S11305D00A94E2F7492B45BB94B302C0220F331FA0
S11305E08A95E2F7922B94BB85B32095282325BBEB
S11305F023B330E002C0359527956A95E2F781E090
S113060090E020FF02C080E090E008950F931F93D4
S1130610CF93DF9300E010E018C0BE01C8010E9430
S1130620DC02009749F0000F111F000F111FC00FCB
S1130630D11FCE0101960CC02196C430D10569F7B3
S11306400F5F1F4F0430110519F0C0E0D0E0E5CF73
S1130650DF91CF911F910F910895CF93DF930E9463
S11306600603EC01892B41F00E940603C817D90741
S1130670D9F38C2F9D2F02C080E090E0DF91CF91C1
S113068008950E942D038130910519F00297D1F14C
S1130690089580E090E0A0ECB0E480936000909333
S11306A06100A0936200B093630010927A001092EC
S11306B07B0010927C0010927D0010927F001092BB
S11306C07E00109288001092890010928A00109285
S11306D08B0010927600109277001092780010929E
S11306E07900109284001092850010928600109276
S11306F0870080B78F7B80BF80B78F7780BF0E94D1
S11307006301089580B7806480BF80B7806880BF2C
S113071008950E94F7000E941F01D098BC9A87EFA9
S113072092EC9DBD8CBD84E08EBD80B7806480BF9B
S113073080B7806880BF7894379A359A339A329A12
S1130740319A309A3E9A369A0E944103FDCF50580E
S1130750BB27AA270E94BF030C9403050E94F5043B
S113076038F00E94FC0420F039F49F3F19F426F479
S11307700C94F2040EF4E095E7FB0C94EC04E92FDE
S11307800E94140558F3BA17620773078407950784
S113079020F079F4A6F50C9436050EF4E0950B2EB2
S11307A0BA2FA02D0B01B90190010C01CA01A001BF
S11307B01124FF27591B99F0593F50F4503E68F11A
S11307C01A16F040A22F232F342F4427585FF3CF5B
S11307D0469537952795A795F0405395C9F77EF42C
S11307E01F16BA0B620B730B840BBAF09150A1F075
S11307F0FF0FBB1F661F771F881FC2F70EC0BA0FFB
S1130800621F731F841F48F4879577956795B79582
S1130810F7959E3F08F0B0CF9395880F08F099277D
S1130820EE0F9795879508950E94C80408F481E017
S113083008950E942D040C9403050E94FC0458F0B2
S11308400E94F50440F029F45F3F29F00C94EC0475
S113085051110C9437050C94F2040E94140568F3AA
S11308609923B1F3552391F3951B550BBB27AA2765
S113087062177307840738F09F5F5F4F220F331F9F
S1130880441FAA1FA9F335D00E2E3AF0E0E832D067
S113089091505040E695001CCAF72BD0FE2F29D06A
S11308A0660F771F881FBB1F261737074807AB073C
S11308B0B0E809F0BB0B802DBF01FF2793585F4FB1
S11308C03AF09E3F510578F00C94EC040C943705F3
S11308D05F3FE4F3983ED4F3869577956795B79593
S11308E0F7959F5FC9F7880F911D9695879597F99E
S11308F00895E1E0660F771F881FBB1F6217730717
S11309008407BA0720F0621B730B840BBA0BEE1F2B
S113091088F7E0950895E89409C097FB3EF4909514
S11309208095709561957F4F8F4F9F4F9923A9F0C4
S1130930F92F96E9BB279395F69587957795679553
S1130940B795F111F8CFFAF4BB0F11F460FF1BC097
S11309506F5F7F4F8F4F9F4F16C0882311F096E92A
S113096011C0772321F09EE8872F762F05C06623D8
S113097071F096E8862F70E060E02AF09A95660F91
S1130980771F881FDAF7880F9695879597F908954A
S1130990990F0008550FAA0BE0E8FEEF161617068C
S11309A0E807F907C0F012161306E407F50798F0F4
S11309B0621B730B840B950B39F40A2661F0232B0D
S11309C0242B252B21F408950A2609F4A140A69589
S11309D08FEF811D811D089597F99F6780E870E06E
S11309E060E008959FEF80EC089500240A941616A1
S11309F0170618060906089500240A941216130609
S1130A00140605060895092E0394000C11F4882396
S1130A1052F0BB0F40F4BF2B11F460FF04C06F5FB2
S1130A207F4F8F4F9F4F089557FD9058440F551F88
S1130A3059F05F3F71F04795880F97FB991F61F05C
S1130A409F3F79F087950895121613061406551FD3
S1130A50F2CF4695F1DF08C0161617061806991F3F
S1130A60F1CF86957105610508940895E894BB2734
S1130A7066277727CB0197F908950E94C80408F4E4
S1130A808FEF08950E9455050C9403050E94F50408
S1130A9038F00E94FC0420F0952311F00C94EC042F
S1130AA00C94F20411240C9437050E94140570F37D
S1130AB0959FC1F3950F50E0551F629FF001729FFF
S1130AC0BB27F00DB11D639FAA27F00DB11DAA1F0E
S1130AD0649F6627B00DA11D661F829F2227B00D5B
S1130AE0A11D621F739FB00DA11D621F839FA00DE6
S1130AF0611D221F749F3327A00D611D231F849F36
S1130B00600D211D822F762F6A2F11249F5750408C
S1130B109AF0F1F088234AF0EE0FFF1FBB1F661F07
S1130B20771F881F91505040A9F79E3F510580F0D0
S1130B300C94EC040C9437055F3FE4F3983ED4F333
S1130B40869577956795B795F795E7959F5FC1F774
S1130B50FE2B880F911D9695879597F90895EF922E
S1130B600F931F93CF93DF93E80147FD02C034E056
S1130B7001C034E1042E000C550B57FF03C05195FE
S1130B8041955109E32E022F242FAE010E94CF0577
S1130B90CE01DF91CF911F910F91EF900895A9E0BD
S1130BA0B0E0E5EDF5E00C9407086A01122FB02ED1
S1130BB02BE3201720F0FF24F394F00E02C02CE363
S1130BC0F22E0F2D27E0AE014F5F5F4F0E942907E1
S1130BD0BC014981842F8970813031F0E1FC06C069
S1130BE0E0FE06C090E205C09DE203C09BE201C0A6
S1130BF090E05E2D507143FF3CC0911102C083E030
S1130C0001C084E0811718F4212F281B01C020E0C3
S1130C1051110BC0F601822F30E2882319F0319371
S1130C208150FBCFC20ED11C20E0992329F0D601BC
S1130C309C93F60131966F01C6010396E2FE0AC049
S1130C403EE4D6013C9341E411964C9311971296DD
S1130C503C9306C03EE6F601308341E6418332838D
S1130C60FC01322F40E2332309F442C04193315056
S1130C70FACF42FF44C0911102C083E001C084E076
S1130C80811718F4212F281B01C020E051110BC03B
S1130C90F601822F30E2882319F031938150FBCF83
S1130CA0C20ED11C20E0992329F0D6019C93F601B1
S1130CB031966F01C6010396E2FE0BC039E4D601FA
S1130CC03C933EE411963C93119736E412963C9380
S1130CD007C039E6F60130833EE6318336E63283D7
S1130CE0FC01322F40E2332319F041933150FBCF02
S1130CF0FC01E20FF11D10828EEF9FEFA6C021E0F0
S1130D0030E0911102C020E030E0161617061CF402
S1130D10FB01319602C0E1E0F0E02E0F3F1FBB2043
S1130D2021F0EB2DF0E0319602C0E0E0F0E02E0F70
S1130D303F1FE12FF0E02E173F071CF4121B212F59
S1130D4001C020E08E2D887159F4F601822F30E223
S1130D50882319F031938150FBCFC20ED11C20E0BF
S1130D60992329F0D6019C93F60131966F01511114
S1130D700BC0F601822F90E3882319F091938150E0
S1130D80FBCFC20ED11C20E00F2D060F9A81342F09
S1130D90307144FF03C0913309F40150101624F458
S1130DA0093018F008E001C001E0AB0177FF02C090
S1130DB040E050E0FB01E41BF50BA1E0B0E0AC0F18
S1130DC0BD1FEA0FFB1F8EE2A82E4B01801A91086B
S1130DD00B2D10E01195019511094F3FBFEF5B07F3
S1130DE021F4D601AC9211966D01641775072CF0AD
S1130DF08416950614F4818101C080E341505109A1
S1130E003196D60111967D014017510724F0D60181
S1130E108C936701E2CF6417750739F4963320F495
S1130E20953319F4311101C081E3F6018083F70190
S1130E30822F90E2882319F091938150FBCFF70120
S1130E40E20FF11D108280E090E02996ECE00C9412
S1130E502308283008F027E03327DA01990F311DE1
S1130E6087FD916000966105710539F432602E5F4B
S1130E703D9330E32A95E1F708959F3F30F08038A1
S1130E807105610509F03C5F3C5F3D93913008F0CA
S1130E908068911DDF93CF931F930F93FF92EF927E
S1130EA0192F987F9695E92F96959695E90FFF2728
S1130EB0E255FF4F99273327EE24FF24A701E701CA
S1130EC005900894079428F4360FE71EF81E491F6E
S1130ED0511D660F771F881F991F0694A1F705906F
S1130EE0079428F4E70EF81E491F561FC11D770FFB
S1130EF0881F991F661F0694A1F70590079428F48C
S1130F00F80E491F561FC71FD11D880F991F661F52
S1130F10771F0694A1F70590079420F4490F561FF4
S1130F20C71FD81F990F661F771F881F0694A9F73C
S1130F3084911095177041F0D695C79557954795AC
S1130F40F794E7941A95C1F7E4E5F0E068941590F6
S1130F50159135916591959105907FE27395E1180E
S1130F60F10A430B560BC90BD009C0F7E10CF11E73
S1130F70431F561FC91FD01D7EF4703311F48A9588
S1130F80E6CFE894015030F0080F0AF40027021766
S1130F9008F4202F2395022F7A3328F079E37D93E8
S1130FA02A95E9F710C07D932A9589F606949795BA
S1130FB06795379517951794E118F10A430B560B6B
S1130FC0C90BD00998F023957E9173957A3308F074
S1130FD070E37C932013B8F77E9170617D9330F0B9
S1130FE0839571E37D9370E32A95E1F71124EF90E3
S1130FF0FF900F911F91CF91DF91992787FD9095D5
S113100008952F923F924F925F926F927F928F92A8
S11310109F92AF92BF92CF92DF92EF92FF920F9383
S11310201F93CF93DF93CDB7DEB7CA1BDB0B0FB68D
S1131030F894DEBF0FBECDBF09942A88398848884A
S11310405F846E847D848C849B84AA84B984C884E0
S1131050DF80EE80FD800C811B81AA81B981CE0FD7
S1131060D11D0FB6F894DEBF0FBECDBFED010895BC
S1071070F894FFCF1E
S11310740000A0402D2D2D2D2D004920006D2000B1
S10910844D200061200074
S9030000FC
